{
  "transactions": [
    {
      "hash": "0x024162748f81657d17ac81e0fb30f66e229ad041f7f67a6387329d50347f9854",
      "transactionType": "CALL",
      "contractName": "LinkToken",
      "contractAddress": "0x779877A7B0D9E8603169DdbD7836e478b4624789",
      "function": "transferAndCall(address,uint256,bytes):(bool)",
      "arguments": [
        "0x8103B0A8A00be2DDC778e6e7eaa21791Cd364625",
        "3000000000000000000",
        "0x0000000000000000000000000000000000000000000000000000000000000d4a"
      ],
      "transaction": {
        "type": "0x02",
        "from": "0x9ac585330bb8fa39cc6cc94593e1d1ca80019271",
        "to": "0x779877a7b0d9e8603169ddbd7836e478b4624789",
        "gas": "0x13fbe",
        "value": "0x0",
        "data": "0x4000aea00000000000000000000000008103b0a8a00be2ddc778e6e7eaa21791cd36462500000000000000000000000000000000000000000000000029a2241af62c0000000000000000000000000000000000000000000000000000000000000000006000000000000000000000000000000000000000000000000000000000000000200000000000000000000000000000000000000000000000000000000000000d4a",
        "nonce": "0x4",
        "accessList": []
      },
      "additionalContracts": [],
      "isFixedGasLimit": false
    }
  ],
  "receipts": [],
  "libraries": [],
  "pending": [
    "0x024162748f81657d17ac81e0fb30f66e229ad041f7f67a6387329d50347f9854"
  ],
  "returns": {},
  "timestamp": 1688503117,
  "chain": 11155111,
  "multi": false,
  "commit": "d3f6cc0"
}