{
  "transactions": [
    {
      "hash": "0x024162748f81657d17ac81e0fb30f66e229ad041f7f67a6387329d50347f9854",
      "transactionType": "CALL",
      "contractName": "LinkToken",
      "contractAddress": "0x779877A7B0D9E8603169DdbD7836e478b4624789",
      "function": "transferAndCall(address,uint256,bytes):(bool)",
      "arguments": [
        "0x8103B0A8A00be2DDC778e6e7eaa21791Cd364625",
        "3000000000000000000",
        "0x0000000000000000000000000000000000000000000000000000000000000d4a"
      ],
      "transaction": {
        "type": "0x02",
        "from": "0x9ac585330bb8fa39cc6cc94593e1d1ca80019271",
        "to": "0x779877a7b0d9e8603169ddbd7836e478b4624789",
        "gas": "0x13fbe",
        "value": "0x0",
        "data": "0x4000aea00000000000000000000000008103b0a8a00be2ddc778e6e7eaa21791cd36462500000000000000000000000000000000000000000000000029a2241af62c0000000000000000000000000000000000000000000000000000000000000000006000000000000000000000000000000000000000000000000000000000000000200000000000000000000000000000000000000000000000000000000000000d4a",
        "nonce": "0x4",
        "accessList": []
      },
      "additionalContracts": [],
      "isFixedGasLimit": false
    }
  ],
  "receipts": [
    {
      "transactionHash": "0x024162748f81657d17ac81e0fb30f66e229ad041f7f67a6387329d50347f9854",
      "transactionIndex": "0x0",
      "blockHash": "0x54cdddfa1589a911c6e192c7730b94c211d0c4e504b18258918ee9012bca987f",
      "blockNumber": "0x3a5ec1",
      "from": "0x9aC585330bb8Fa39cC6Cc94593e1D1ca80019271",
      "to": "0x779877A7B0D9E8603169DdbD7836e478b4624789",
      "cumulativeGasUsed": "0xe77e",
      "gasUsed": "0xe77e",
      "contractAddress": null,
      "logs": [
        {
          "address": "0x779877A7B0D9E8603169DdbD7836e478b4624789",
          "topics": [
            "0xddf252ad1be2c89b69c2b068fc378daa952ba7f163c4a11628f55a4df523b3ef",
            "0x0000000000000000000000009ac585330bb8fa39cc6cc94593e1d1ca80019271",
            "0x0000000000000000000000008103b0a8a00be2ddc778e6e7eaa21791cd364625"
          ],
          "data": "0x00000000000000000000000000000000000000000000000029a2241af62c0000",
          "blockHash": "0x54cdddfa1589a911c6e192c7730b94c211d0c4e504b18258918ee9012bca987f",
          "blockNumber": "0x3a5ec1",
          "transactionHash": "0x024162748f81657d17ac81e0fb30f66e229ad041f7f67a6387329d50347f9854",
          "transactionIndex": "0x0",
          "logIndex": "0x0",
          "removed": false
        },
        {
          "address": "0x779877A7B0D9E8603169DdbD7836e478b4624789",
          "topics": [
            "0xe19260aff97b920c7df27010903aeb9c8d2be5d310a2c67824cf3f15396e4c16",
            "0x0000000000000000000000009ac585330bb8fa39cc6cc94593e1d1ca80019271",
            "0x0000000000000000000000008103b0a8a00be2ddc778e6e7eaa21791cd364625"
          ],
          "data": "0x00000000000000000000000000000000000000000000000029a2241af62c0000000000000000000000000000000000000000000000000000000000000000004000000000000000000000000000000000000000000000000000000000000000200000000000000000000000000000000000000000000000000000000000000d4a",
          "blockHash": "0x54cdddfa1589a911c6e192c7730b94c211d0c4e504b18258918ee9012bca987f",
          "blockNumber": "0x3a5ec1",
          "transactionHash": "0x024162748f81657d17ac81e0fb30f66e229ad041f7f67a6387329d50347f9854",
          "transactionIndex": "0x0",
          "logIndex": "0x1",
          "removed": false
        },
        {
          "address": "0x8103B0A8A00be2DDC778e6e7eaa21791Cd364625",
          "topics": [
            "0xd39ec07f4e209f627a4c427971473820dc129761ba28de8906bd56f57101d4f8",
            "0x0000000000000000000000000000000000000000000000000000000000000d4a"
          ],
          "data": "0x0000000000000000000000000000000000000000000000008ac7230489e80000000000000000000000000000000000000000000000000000b469471f80140000",
          "blockHash": "0x54cdddfa1589a911c6e192c7730b94c211d0c4e504b18258918ee9012bca987f",
          "blockNumber": "0x3a5ec1",
          "transactionHash": "0x024162748f81657d17ac81e0fb30f66e229ad041f7f67a6387329d50347f9854",
          "transactionIndex": "0x0",
          "logIndex": "0x2",
          "removed": false
        }
      ],
      "status": "0x1",
      "logsBloom": "0x0000001400000000000000000000000000000000000000020000000002000000000000000000800000000000000000000000000000000000000000000000020000000000000000000000000800000000000000000000000000002000000000000000000000000000000000000000000000000000400000002002001000000000000000000c000020000000000000800010008020000000000000000200000000000000000000000000000000000000000000000000000000000400000000000000000002000000000000000000000000000800000000000100000000000000000000000000000000000000000000000000000000000000000000000000000000",
      "type": "0x2",
      "effectiveGasPrice": "0xb2d05e1e"
    }
  ],
  "libraries": [],
  "pending": [],
  "returns": {},
  "timestamp": 1688503129,
  "chain": 11155111,
  "multi": false,
  "commit": "d3f6cc0"
}